:020000040800F2
:100000008806002099010008A1010008A30100084A
:10001000A5010008A7010008A901000800000000D0
:10002000000000000000000000000000AB0100081C
:10003000AD01000800000000E5020008B101000861
:10004000B3010008B3010008B3010008B3010008C0
:10005000B3010008B3010008B3010008B3010008B0
:10006000B3010008B3010008B3010008B3010008A0
:10007000B3010008B3010008B3010008B301000890
:10008000B3010008B3010008B3010008B301000880
:10009000B3010008B3010008B3010008B301000870
:1000A000B3010008B3010008B3010008B301000860
:1000B000B3010008B3010008B1050008B30100084E
:1000C000B3010008B3010008B3010008B301000840
:1000D000B301000815060008450700087508000868
:1000E000B3010008B3010008B301000800F002F8F2
:1000F00000F042F814A696E8000CB244B344DA4586
:1001000001D100F039F8BAE80F000FA696E83000E8
:10011000A5EB040504EB0607AAEB0704A7F101070A
:100120004FEA15154FEA3414A4F10104AC4201D38F
:1001300000F022F813F0010F18BFFB1A43F001037F
:1001400000F001F8DBE71847F008000000090000A4
:10015000704700000023002400250026103A28BF25
:1001600078C1FBD8520728BF30C148BF0B60704729
:100170001FB51FBD10B510BD00F037F81146FFF7D1
:10018000F7FF00F053FC00F055F803B4FFF7F2FF5F
:1001900003BC00F059F800000948804709480047AF
:1001A000FEE7FEE7FEE7FEE7FEE7FEE7FEE7FEE727
:1001B000FEE7FEE704480549054A064B7047000084
:1001C0002D050008ED0000088800002088060020AA
:1001D00088020020880200207047704770470000A6
:1001E000004870470000002070477546FFF7F8FF91
:1001F000AE4605006946534620F00700854618B014
:1002000020B5FFF7D7FFBDE820404FF000064FF0C4
:1002100000074FF000084FF0000BAC46ACE8C009F7
:10022000ACE8C009ACE8C009ACE8C00921F007019E
:100230008D46704710B50446AFF300802046BDE8F8
:100240001040FFF7A2BF000001491820ABBEFEE737
:100250002600020082B040F26C00C2F20000016889
:10026000C9680191019904390191019A4FF0807197
:1002700011600199043901910068006901990860D1
:1002800001980438019001996FF002000860002085
:100290008DF80300FFE79DF8030004280DDCFFE75D
:1002A000019804380190019900200860FFE79DF84B
:1002B000030001308DF80300EDE7019840F26C0176
:1002C000C2F200010968C86002B070474FF0010037
:1002D00080F31088704700004FF0000080F3108812
:1002E00070470000EFF3098020E9F00F00B500F03F
:1002F0001BF800F02BF800F009F8B0E8F00F80F3DD
:1003000009885DF804EB70477047000040F269000F
:10031000C2F20000017840F26C00C2F2000050F816
:100320002100C0687047000081B00090009840F242
:100330006901C2F200010A7840F26C01C2F20001C8
:1003400051F82210C86001B07047000081B0002051
:100350008DF8030001208DF80200FFE79DF80200F0
:1003600040F26401C2F200010978013188423DDCAB
:10037000FFE740F26900C2F2000000789DF8021029
:10038000421840F26400C2F200000078411CB2FB47
:10039000F1F000FB11208DF801009DF8011040F2F2
:1003A0006C00C2F2000050F821000078012816D13C
:1003B000FFE79DF8010040F26C01C2F2000151F824
:1003C000200040789DF8032051F822104978884297
:1003D00005DAFFE79DF801008DF80300FFE7FFE76E
:1003E0009DF8020001308DF80200B7E79DF8030088
:1003F00040F26901C2F20001087001B070470000CC
:1004000080B500F001F880BD84B000200390029018
:1004100041F20001C4F20201086840F48030086033
:10042000FFE741F20000C4F20200006800F400306F
:100430000290039801300390FFE702990020019099
:1004400039B9FFE70398B0F5A06018BF012001900B
:10045000FFE70198C0070028E3D1FFE741F2000061
:10046000C4F2020000688003002803D5FFE70120E2
:10047000029002E000200290FFE70298012851D18B
:10048000FFE742F20001C4F20201086840F01000E8
:100490000860086820F007000860086840F0020063
:1004A000086041F20401C4F202010091086808608A
:1004B00008680860086840F480600860086820F4F4
:1004C0007C100860086840F4E810086041F2000100
:1004D000C4F20201086840F080700860FFE741F252
:1004E0000000C4F2020000688001002801D4FFE788
:1004F000F5E741F20401C4F20201086820F00300AC
:100500000860086840F002000860FFE741F204005C
:10051000C4F20200006800F00C00082801D0FFE7D8
:10052000F4E700E0FFE704B07047000080B541F257
:100530000002C4F20202106840F00100106041F2B3
:100540000401C4F2020108680023CFF6FF0318403B
:10055000086010684FF6FF73CFF6F663184010601E
:10056000106820F480201060086820F4FE00086005
:1005700041F20801C4F202014FF41F000860FFF7C6
:100580003FFF4EF60851CEF200014FF000600860C8
:1005900080BD000081B04EF60450CEF20000009005
:1005A0000099086840F08050086001B07047000072
:1005B00080B540F26800C2F200000078B0B9FFE7F1
:1005C000FFF784FE40F26801C2F2000108780130B2
:1005D0000870FFF73FFE40F60001C4F20001086812
:1005E00040F001000860FFF777FEFFE740F61001DA
:1005F000C4F20001086820F00100086040F26601C2
:10060000C2F2000108880130088000F0CBF9FFF742
:10061000C1FF80BD80B582B001208DF8070043F690
:100620000C00C4F201000068800600280ED5FFE728
:1006300043F60000C4F2010000688006002804D5DB
:10064000FFE705208DF8070072E0FFE743F60C0096
:10065000C4F201000068000600280ED5FFE743F64B
:100660000000C4F2010000680006002804D5FFE77E
:1006700007208DF807005BE0FFE743F60C00C4F2AB
:1006800001000068400600280ED5FFE743F6000091
:10069000C4F2010000684006002804D5FFE70620E8
:1006A0008DF8070044E0FFE743F60C00C4F20100B8
:1006B0000068C00500280DD5FFE743F60000C4F22E
:1006C00001000068C00720B1FFE708208DF807008F
:1006D0002EE0FFE743F60C00C4F201000068C006FC
:1006E00000280ED5FFE743F60000C4F201000068C1
:1006F000C006002804D5FFE704208DF8070017E0A6
:10070000FFE743F61400C4F201000068C00770B1AF
:10071000FFE743F60000C4F20100006810F00E0F7E
:1007200004D0FFE700208DF80700FFE7FFE7FFE7B1
:1007300040F26000C2F2000001689DF8070088479F
:1007400002B080BD80B582B001208DF8070044F270
:100750000C40C4F200000068800600280ED5FFE7B8
:1007600044F20040C4F2000000688006002804D56E
:10077000FFE705208DF8070072E0FFE744F20C4028
:10078000C4F200000068000600280ED5FFE744F21E
:100790000040C4F2000000680006002804D5FFE70E
:1007A00007208DF807005BE0FFE744F20C40C4F23D
:1007B00000000068400600280ED5FFE744F2004024
:1007C000C4F2000000684006002804D5FFE70620B8
:1007D0008DF8070044E0FFE744F20C40C4F200004B
:1007E0000068C00500280DD5FFE744F20040C4F2C0
:1007F00000000068C00720B1FFE708208DF807005F
:100800002EE0FFE744F20C40C4F200000068C0068E
:1008100000280ED5FFE744F20040C4F20000006853
:10082000C006002804D5FFE704208DF8070017E074
:10083000FFE744F21440C4F200000068C00770B142
:10084000FFE744F20040C4F20000006810F00E0F11
:1008500004D0FFE700208DF80700FFE7FFE7FFE780
:1008600040F26000C2F2000001689DF8070088476E
:1008700002B080BD80B582B001208DF8070044F63B
:100880000C00C4F200000068800600280ED5FFE7C7
:1008900044F60000C4F2000000688006002804D579
:1008A000FFE705208DF8070072E0FFE744F60C0033
:1008B000C4F200000068000600280ED5FFE744F6E9
:1008C0000000C4F2000000680006002804D5FFE71D
:1008D00007208DF807005BE0FFE744F60C00C4F248
:1008E00000000068400600280ED5FFE744F600002F
:1008F000C4F2000000684006002804D5FFE7062087
:100900008DF8070044E0FFE744F60C00C4F2000055
:100910000068C00500280DD5FFE744F60000C4F2CA
:1009200000000068C00720B1FFE708208DF807002D
:100930002EE0FFE744F60C00C4F200000068C00699
:1009400000280ED5FFE744F60000C4F2000000685E
:10095000C006002804D5FFE704208DF8070017E043
:10096000FFE744F61400C4F200000068C00770B14D
:10097000FFE744F60000C4F20000006810F00E0F1C
:1009800004D0FFE700208DF80700FFE7FFE7FFE74F
:1009900040F26000C2F2000001689DF8070088473D
:1009A00002B080BD81B000208DF80300FFE79DF804
:1009B000030040F26401C2F200010978884233DA90
:1009C000FFE79DF8031040F26C00C2F2000000EB5C
:1009D00081004068007863281FD1FFE79DF803106D
:1009E00040F26C00C2F2000000EB81004068C08859
:1009F00040F26601C2F20001098888420CD1FFE78B
:100A00009DF8031040F26C00C2F2000000EB810080
:100A1000416801200870FFE7FFE7FFE79DF803004A
:100A200001308DF80300C2E701B0704781B00020AB
:100A3000009001B070470000480A00080000002044
:080A40008806000054010008C3
:04000005080000ED02
:00000001FF
