:020000040800F2
:1000000090320020A1010008A9010008AB010008FE
:10001000AD010008AF010008B101000800000000B8
:10002000000000000000000000000000B301000814
:10003000B5010008000000005D110008B9010008CA
:10004000BB010008BB010008BB010008BB010008A0
:10005000BB010008BB010008BB010008BB01000890
:10006000BB010008BB010008BB010008BB01000880
:10007000BB010008BB010008BB010008BB01000870
:10008000BB010008BB010008BB010008BB01000860
:10009000BB010008BB010008BB010008BB01000850
:1000A000BB010008BB010008BB010008BB01000840
:1000B000BB010008BB01000851140008BB01000887
:1000C000BB010008BB010008BB010008BB01000820
:1000D000BB010008B5140008E51500081517000855
:1000E000BB010008BB010008BB01000800F002F8DA
:1000F00000F046F814A696E8000CB244B344DA4582
:1001000001D100F03DF8BAE80F000FA696E83000E4
:10011000A5EB040504EB0607AAEB0704A7F101070A
:100120004FEA15154FEA3414A4F10104AC4201D38F
:1001300000F026F813F0010F18BFFB1A43F001037B
:1001400000F001F8DBE7184760230000702300008F
:10015000704700000023002400250026103A28BF25
:1001600078C1FBD8520728BF30C148BF0B60704729
:100170001FB59DE8030000F0A9F81FBD10B510BD24
:1001800000F000F91146FFF7F3FF01F09FFB00F0CC
:100190001EF903B4FFF7F2FF03BC00F04FF90000B3
:1001A0000948804709480047FEE7FEE7FEE7FEE70B
:1001B000FEE7FEE7FEE7FEE7FEE7FEE70448054947
:1001C000054A064B7047000021140008ED000008A6
:1001D0009000002090320020900A0020900A002019
:1001E00070B5064600F056F8056806F10B0020F0E1
:1001F0000704B4429CBF002070BD2B466A68BAB1A8
:100200001068A04210D304F1080188423CBF506836
:10021000586007D35168101941601168091B0160CB
:1002200058601460101D70BD13465268002AE7D153
:100230002146284600F036F80028DED170BD70B5A2
:100240000446051F00F026F80068002C14BF44681F
:1002500070BD002C18BFAC423CBF20466468F8D388
:1002600001680A18AA4218BF456003D12A680546EA
:100270001144016028684119A1421CBF6C6070BD27
:100280006168696021680844286070BD70477047E4
:100290007047000000487047080000207047704712
:1002A0007047704738B504460A4600206946AFF3E8
:1002B0000080002808BF38BD02460099204600F0A3
:1002C0003FF8012038BD012000F054B8F8B5AFF375
:1002D0000080054600200C460C2000BF0646A819E9
:1002E000A0420DD9324669460020AFF300800700D6
:1002F00008BF00F03FF80098A04218BF0546C41997
:10030000FFF7C8FF05600746F01D20F007004619FB
:10031000284600F00AF8B44208BFF8BDA21B3146D7
:100320003868BDE8F84000F00BB80021016041607A
:1003300070470C2070470000004870470000002004
:10034000034640688C46002818BF88423CBF0346DD
:100350004068F8D318681844884207D00CF10300AD
:1003600020F00700001D411A521A0146081D0A60BC
:10037000FFF765BF10B500F039F8BDE8104000F098
:100380002FB870477546FFF7D7FFAE4605006946A0
:10039000534620F00700854618B020B5FFF70EFF42
:1003A000BDE820404FF000064FF000074FF0000876
:1003B0004FF0000BAC46ACE8C009ACE8C009ACE8B3
:1003C000C009ACE8C00921F007018D46704710B59F
:1003D0000446AFF300802046BDE81040FFF7D9BEC9
:1003E000002801D000F02AB87047000010B501289D
:1003F00005D0002103A000F027F8012010BD09A1BD
:10040000F8E7000053494752544D454D3A204F7587
:1004100074206F662068656170206D656D6F7279FC
:10042000000000003A2048656170206D656D6F72B4
:100430007920636F727275707465640001491820C9
:10044000ABBEFEE72600020070B505460C460A204A
:1004500000E06D1C00F011F835B128780028F8D1C3
:1004600002E0641C00F009F814B120780028F8D1EB
:10047000BDE870400A20AFF3008008B569468DF8EA
:1004800000000320ABBE08BD82B040F27800C2F28B
:1004900000000168C9680191019904390191019A2C
:1004A0004FF0807111600199043901910068006971
:1004B0000199086001980438019001996FF00200D9
:1004C000086000208DF80300FFE79DF80300042872
:1004D0000DDCFFE7019804380190019900200860C5
:1004E000FFE79DF8030001308DF80300EDE7019868
:1004F00040F27801C2F200010968C86002B070479A
:100500004FF0010080F31088704700004FF00000AA
:1005100080F310887047000082B001908DF80310BE
:100520009DF80300012836D1FFE7019840F600014D
:10053000C4F20101884209D1FFE741F21801C4F277
:100540000201086840F00400086023E0019840F6CA
:100550000041C4F20101884209D1FFE741F21801CC
:10056000C4F20201086840F00800086011E0019838
:1005700041F20001C4F20101884209D1FFE741F2D2
:100580001801C4F20201086840F010000860FFE79B
:10059000FFE7FFE73AE09DF80300B0BBFFE70198F3
:1005A00040F60001C4F20101884209D1FFE741F29F
:1005B0001801C4F20201086820F00400086023E07A
:1005C000019840F60041C4F20101884209D1FFE7D9
:1005D00041F21801C4F20201086820F00800086026
:1005E00011E0019841F20001C4F20101884209D1F1
:1005F000FFE741F21801C4F20201086820F0100080
:100600000860FFE7FFE7FFE7FFE7FFE702B070479B
:1006100080B582B001908DF803108DF802208DF81E
:10062000013001980121FFF777FF9DF803008DF855
:1006300000009DF8000007281BDCFFE79DF8000084
:1006400081000F2000FA01F20199086890430860C8
:100650009DF802009DF800108A0090409DF801105E
:100660000232914040EA0102019908681043086093
:100670001FE09DF8000008388DF800009DF800008C
:1006800081000F2000FA01F2019948689043486008
:100690009DF802009DF800108A0090409DF801101E
:1006A0000232914040EA01020199486810434860D3
:1006B000FFE702B080BD00004AF20020C0F24A40CD
:1006C0007047000045F20010C0F22520704700007E
:1006D00080B58AB009900998006845F20041C4F2DB
:1006E000000188423FD1FFE741F21C01C4F2020140
:1006F000086840F4001008600420C4F2010000689B
:100700008007002813D5FFE740F60040C4F201003F
:10071000069008210122079203230893FFF778FF30
:100720000698079A089B0921FFF772FF12E040F62E
:100730000040C4F201000390062101220492032329
:100740000593FFF765FF0398049A059B0721FFF7C0
:100750005FFFFFE745F20041C4F20001086840F086
:10076000010008602CE00998006845F60001C4F219
:100770000001884223D1FFE741F21C01C4F20201CB
:10078000086840F48000086040F60040C4F20100B0
:1007900000900A210122019203230293FFF738FF00
:1007A0000098019A029B0B21FFF732FF45F60001EA
:1007B000C4F20001086840F001000860FFE7FFE7AD
:1007C0000998016808684FF63F32104008600998A0
:1007D000017B8902427B41EAC211827B41EA82129B
:1007E000016808681043086009980168886820F467
:1007F000004088600998C27B0168886840EAC2307E
:1008000088600998C07B30B9FFE70999088A4000E1
:10081000096888600AE00998C07B012805D1FFE7D4
:100820000999088A09688860FFE7FFE70998016865
:10083000486820F0FF0048600998016880684DF61C
:100840008362C4F21B32A0FB0202486840EA924075
:10085000486009980168C8694FF6FF729043C86103
:1008600009980168086A002008620998807CC0B96C
:10087000FFE709980168426880685200B0FBF2F215
:10088000C8691043C8610998016880684DF68362A1
:10089000C4F21B32A0FB0202012000EB924008626E
:1008A00041E00998807C02281BD1FFE70998016884
:1008B0004268806802EB4202B0FBF2F0CA69104362
:1008C00040F40040C8610998016880684DF6836271
:1008D000C4F21B32A0FB0202012000EB125008629E
:1008E00020E00998807C03281BD1FFE70998016864
:1008F0004268806819235A43B0FBF2F0CA6910437A
:1009000040F44040C8610998016880684DF68362F0
:10091000C4F21B32A0FB0202012000EB125008625D
:10092000FFE7FFE7FFE70AB080BD000080B588B0B1
:1009300084460A98CDF818C08DF81710ADF8142029
:1009400004938DF80F0000200290069800F0FEF945
:100950008DF807009DF8070020B9FFE700208DF80B
:100960001F0092E006989DF81710BDF8142001238F
:1009700000F036F98DF807009DF8070020B9FFE771
:1009800000208DF81F0080E09DF80F0001282ED177
:10099000FFE70699086820F480600860069800F078
:1009A000FDF98DF807009DF8070020B9FFE700204A
:1009B0008DF81F0069E0FFE70698406940060028AF
:1009C00010D4FFE7029801300290029849F280614A
:1009D000C0F29801884204D1FFE700208DF81F0083
:1009E00053E0E9E7069800690499087049E09DF82A
:1009F0000F008DF80600FFE79DF8060001283FDB99
:100A0000FFE7FFE7069840694006002810D4FFE79B
:100A1000029801300290029849F28061C0F2980178
:100A2000884204D1FFE700208DF81F002DE0E9E7A0
:100A30009DF80600022813D1FFE70699086820F404
:100A400080600860069800F0A9F98DF807009DF80D
:100A5000070020B9FFE700208DF81F0015E0FFE731
:100A600006980069049908700498013004900020E9
:100A70000290FFE79DF8060001388DF80600BBE7FD
:100A8000FFE701208DF81F00FFE79DF81F0008B069
:100A900080BD000080B588B084460A98CDF818C0A3
:100AA0008DF81710ADF8142004938DF80F00002076
:100AB0000290069800F04AF98DF807009DF80700AB
:100AC00020B9FFE700208DF81F0084E006989DF80C
:100AD0001710BDF81420002300F082F88DF80700ED
:100AE0009DF8070020B9FFE700208DF81F0072E095
:100AF00000208DF80600FFE79DF806009DF80F1016
:100B0000884227DAFFE7FFE70698406900060028D9
:100B100010D4FFE7029801300290029849F28061F8
:100B2000C0F29801884204D1FFE700208DF81F0031
:100B300051E0E9E7049800780699086104980130CB
:100B4000049000200290FFE79DF8060001308DF828
:100B50000600D1E7FFE7069840690006002810D498
:100B6000FFE7029801300290029849F28061C0F2DA
:100B70009801884204D1FFE700208DF81F002AE089
:100B8000E9E700200290FFE7069840694007002847
:100B900010D4FFE7029801300290029849F2806178
:100BA000C0F29801884204D1FFE700208DF81F00B1
:100BB00011E0E9E7069800F0F1F88DF807009DF8DC
:100BC000070020B9FFE700208DF81F0003E0012097
:100BD0008DF81F00FFE79DF81F0008B080BD0000E2
:100BE00080B586B004908DF80F10ADF80C208DF80C
:100BF0000B3000208DF80A0001909DF80F00C0BB5B
:100C0000FFE7FFE7BDF80C109DF80B0040EA41003C
:100C100004990861FFE7049840698007002825D4FB
:100C2000FFE7019801300190019849F28061C0F21C
:100C30009801884204D1FFE700208DF8170080E07A
:100C400004984069400500280FD5FFE79DF80A0089
:100C500001308DF80A009DF80A00032804D1FFE74F
:100C600000208DF817006CE0CCE7D4E70498806989
:100C700063E09DF80F0001285ED1FFE700208DF8AA
:100C80000A00FFE7BDF80C0000F440719DF80B006E
:100C900040EAD11040F0F00004990861FFE70498A1
:100CA00040690007002816D4FFE704984069400512
:100CB00000280FD5FFE79DF80A0001308DF80A00E3
:100CC0009DF80A00032804D1FFE700208DF81700E3
:100CD00037E0D7E7E3E700208DF80A00FFE79DF84B
:100CE0000C0004990861FFE7049840698007002818
:100CF00016D4FFE704984069400500280FD5FFE7A8
:100D00009DF80A0001308DF80A009DF80A000328BA
:100D100004D1FFE700208DF8170012E0DFE7E3E7DA
:100D2000049880699DF80B00012804D1FFE704981E
:100D300000F00CF8FFE7FFE7FFE701208DF8170050
:100D4000FFE79DF8170006B080BD000083B001905A
:100D5000002000900199086840F480700860FFE767
:100D600001984069C00780B9FFE700980130009002
:100D7000009849F28061C0F29801884204D1FFE7EF
:100D800000208DF80B0004E0EAE701208DF80B004D
:100D9000FFE79DF80B0003B07047000082B00190A0
:100DA000002000900199086840F40070086001205C
:100DB00002B0704780B586B045F20040C4F2000032
:100DC000019001208DF8100000208DF811008DF8A1
:100DD00012008DF813002021ADF814108DF81600C4
:100DE000FFF770FC039048F2A060C0F2010002908F
:100DF00001A8FFF76DFC06B080BD000080B58CB087
:100E00008DF82E000A9109920893002004908DF825
:100E10001F000220FFF7E4F9014604980691ADF89F
:100E200016009DF82E0008300699C0B200F054F864
:100E30008DF81F009DF81F0020B9FFE700208DF8F6
:100E40002F0044E09DF82E00093006990131C0B210
:100E500000F042F88DF81F009DF81F0020B9FFE751
:100E600000208DF82F0032E006980178407840EAA3
:100E70000120ADF81600BDF9160000F0C2FF0022F7
:100E800046F20003C4F2500300F032FE00900191DC
:100E9000099801F0B9F9024600980B46019901F052
:100EA000C5F8029003910A9801F0AEF90246029843
:100EB0000B46039900F0BCFF00F074FF089908800E
:100EC0000698FFF7BCF901208DF82F00FFE79DF889
:100ED0002F000CB080BD000080B584B08DF80E00EE
:100EE000029100218DF807106A460120106045F23A
:100EF0000040C4F2000068220DF10E03FFF7CAFDA6
:100F00008DF807009DF8070020B9FFE700208DF855
:100F10000F0012E0029B69460120086045F2004084
:100F2000C4F2000000216822FFF700FD8DF80700E1
:100F30009DF807008DF80F00FFE79DF80F0004B043
:100F400080BD000080B586B08DF8160004910220A7
:100F5000FFF746F9039000208DF80B0064208DF810
:100F60000A00FFE79DF80A00012843DBFFE79DF830
:100F70001600083003990131C0B2FFF7ADFF8DF8BC
:100F80000B009DF80B0020B9FFE700208DF817003B
:100F900046E09DF8160009300399C0B2FFF79CFFA8
:100FA0008DF80B009DF80B0020B9FFE700208DF8AD
:100FB000170035E003990878497840EA012000B22B
:100FC00000F01FFF002246F20003C4F2500300F0BD
:100FD0008FFD00F0B3FC014604980190006801F019
:100FE0003FF901990860FFE79DF80A0001388DF884
:100FF0000A00B7E704980090006801F005F90022A4
:101000000023C4F2590300F073FD00F097FC00992F
:1010100008600398FFF713F901208DF81700FFE728
:101020009DF8170006B080BD80B584B00020029006
:101030008DF80E0040F26B10ADF80C00FFF7BAFE11
:1010400002996A460220106045F20040C4F2000096
:10105000682203ABFFF71EFD8DF80E009DF80E0011
:1010600020B9FFE700208DF80F0073E019208DF8FC
:101070000C0063208DF80D0069460220086045F2DF
:101080000040C4F200000021682203ABFFF702FD1C
:101090008DF80E009DF80E0020B9FFE700208DF8B6
:1010A0000F0057E01A208DF80C0001208DF80D007C
:1010B00069460220086045F20040C4F200000021A9
:1010C000682203ABFFF7E6FC8DF80E009DF80E00DA
:1010D00020B9FFE700208DF80F003BE01B208DF8C2
:1010E0000C0008208DF80D0069460220086045F2CA
:1010F0000040C4F200000021682203ABFFF7CAFCE5
:101100008DF80E009DF80E0020B9FFE700208DF845
:101110000F001FE01C208DF80C0008208DF80D003A
:1011200069460220086045F20040C4F20000002138
:10113000682203ABFFF7AEFC8DF80E009DF80E00A1
:1011400020B9FFE700208DF80F0003E001208DF8A3
:101150000F00FFE79DF80F0004B080BDEFF309809A
:1011600020E9F00F00B500F01BF800F02BF800F0BC
:1011700009F8B0E8F00F80F309885DF804EB7047D8
:101180007047000040F27500C2F20000017840F2A2
:101190007800C2F2000050F82100C06870470000DB
:1011A00081B00090009840F27501C2F200010A7807
:1011B00040F27801C2F2000151F82210C86001B07B
:1011C0007047000081B000208DF8030001208DF8E9
:1011D0000200FFE79DF8020040F27001C2F2000138
:1011E0000978013188423DDCFFE740F27500C2F228
:1011F000000000789DF80210421840F27000C2F220
:1012000000000078411CB2FBF1F000FB11208DF8CA
:1012100001009DF8011040F27800C2F2000050F881
:1012200021000078012816D1FFE79DF8010040F267
:101230007801C2F2000151F8200040789DF80320A7
:1012400051F822104978884205DAFFE79DF801003D
:101250008DF80300FFE7FFE79DF8020001308DF8ED
:101260000200B7E79DF8030040F27501C2F20001E9
:10127000087001B07047000081B08DF803000020B5
:10128000ADF8000041F20001C4F20201086840F428
:1012900080300860FFE741F20000C4F202000068FD
:1012A0008003002801D4FFE7F5E741F20401C4F20E
:1012B0000201086840F4803008609DF80320086847
:1012C00040EA8240086041F20001C4F2020108686D
:1012D00040F0807008600020ADF80000FFE741F2A8
:1012E0000000C4F2020000688001002801D4FFE77A
:1012F000F5E7012001B0704780B50720FFF7BCFF7C
:1013000008B9FFE720E042F20001C4F202010868D8
:1013100040F010000860086840F00200086000F02B
:1013200015F841F20401C4F20201086840F002001D
:101330000860FFE741F20400C4F202000068000701
:10134000002801D4FFE7F5E780BD000041F2040169
:10135000C4F20201086840F480600860086840F444
:1013600000500860086840F480000860086840F495
:10137000804008607047000083B0029040F268002F
:10138000C2F20000006844F6D351C1F26201A0FB32
:1013900001108009019001984EF21401CEF2000173
:1013A000086001984EF21801CEF2000108604EF27A
:1013B0001001CEF20001086840F001000860002032
:1013C0000090FFE700980299884210D2FFE7FFE7FC
:1013D0004EF21000CEF200000068C003002801D4D5
:1013E000FFE7F5E7FFE7009801300090EAE74EF2EB
:1013F0001001CEF20001086820F00100086003B07F
:101400007047000081B04EF60450CEF2000000900C
:101410000099086840F08050086001B070470000F3
:1014200080B5FFF769FF80BD81B000900098C008CB
:1014300040F26801C2F2000108604EF21001CEF2E3
:101440000001086840F01000086001B0704700001B
:1014500080B540F27400C2F200000078B0B9FFE736
:10146000FFF74EF840F27401C2F200010878013033
:101470000870FFF709F840F60001C4F2000108689F
:1014800040F001000860FFF741F8FFE740F6100167
:10149000C4F20001086820F00100086040F2720107
:1014A000C2F2000108880130088000F0CBF9FFF794
:1014B000A9FF80BD80B582B001208DF8070043F6FA
:1014C0000C00C4F201000068800600280ED5FFE77A
:1014D00043F60000C4F2010000688006002804D52D
:1014E000FFE705208DF8070072E0FFE743F60C00E8
:1014F000C4F201000068000600280ED5FFE743F69D
:101500000000C4F2010000680006002804D5FFE7CF
:1015100007208DF807005BE0FFE743F60C00C4F2FC
:1015200001000068400600280ED5FFE743F60000E2
:10153000C4F2010000684006002804D5FFE7062039
:101540008DF8070044E0FFE743F60C00C4F2010009
:101550000068C00500280DD5FFE743F60000C4F27F
:1015600001000068C00720B1FFE708208DF80700E0
:101570002EE0FFE743F60C00C4F201000068C0064D
:1015800000280ED5FFE743F60000C4F20100006812
:10159000C006002804D5FFE704208DF8070017E0F7
:1015A000FFE743F61400C4F201000068C00770B101
:1015B000FFE743F60000C4F20100006810F00E0FD0
:1015C00004D0FFE700208DF80700FFE7FFE7FFE703
:1015D00040F26C00C2F2000001689DF807008847E5
:1015E00002B080BD80B582B001208DF8070044F2C2
:1015F0000C40C4F200000068800600280ED5FFE70A
:1016000044F20040C4F2000000688006002804D5BF
:10161000FFE705208DF8070072E0FFE744F20C4079
:10162000C4F200000068000600280ED5FFE744F26F
:101630000040C4F2000000680006002804D5FFE75F
:1016400007208DF807005BE0FFE744F20C40C4F28E
:1016500000000068400600280ED5FFE744F2004075
:10166000C4F2000000684006002804D5FFE7062009
:101670008DF8070044E0FFE744F20C40C4F200009C
:101680000068C00500280DD5FFE744F20040C4F211
:1016900000000068C00720B1FFE708208DF80700B0
:1016A0002EE0FFE744F20C40C4F200000068C006E0
:1016B00000280ED5FFE744F20040C4F200000068A5
:1016C000C006002804D5FFE704208DF8070017E0C6
:1016D000FFE744F21440C4F200000068C00770B194
:1016E000FFE744F20040C4F20000006810F00E0F63
:1016F00004D0FFE700208DF80700FFE7FFE7FFE7D2
:1017000040F26C00C2F2000001689DF807008847B3
:1017100002B080BD80B582B001208DF8070044F68C
:101720000C00C4F200000068800600280ED5FFE718
:1017300044F60000C4F2000000688006002804D5CA
:10174000FFE705208DF8070072E0FFE744F60C0084
:10175000C4F200000068000600280ED5FFE744F63A
:101760000000C4F2000000680006002804D5FFE76E
:1017700007208DF807005BE0FFE744F60C00C4F299
:1017800000000068400600280ED5FFE744F6000080
:10179000C4F2000000684006002804D5FFE70620D8
:1017A0008DF8070044E0FFE744F60C00C4F20000A7
:1017B0000068C00500280DD5FFE744F60000C4F21C
:1017C00000000068C00720B1FFE708208DF807007F
:1017D0002EE0FFE744F60C00C4F200000068C006EB
:1017E00000280ED5FFE744F60000C4F200000068B0
:1017F000C006002804D5FFE704208DF8070017E095
:10180000FFE744F61400C4F200000068C00770B19E
:10181000FFE744F60000C4F20000006810F00E0F6D
:1018200004D0FFE700208DF80700FFE7FFE7FFE7A0
:1018300040F26C00C2F2000001689DF80700884782
:1018400002B080BD81B000208DF80300FFE79DF855
:10185000030040F27001C2F200010978884233DAD5
:10186000FFE79DF8031040F27800C2F2000000EBA1
:1018700081004068007863281FD1FFE79DF80310BE
:1018800040F27800C2F2000000EB81004068C0889E
:1018900040F27201C2F20001098888420CD1FFE7D0
:1018A0009DF8031040F27800C2F2000000EB8100C6
:1018B000416801200870FFE7FFE7FFE79DF803009C
:1018C00001308DF80300C2E701B0704780B582B0E7
:1018D000002001908DF80300FEF7EEFEFFF7A4FD57
:1018E000FFF7A2FB40F26401C2F200013F20FFF7C4
:1018F00029FBFFE70020ADF800003220FFF73CFD98
:1019000040F26400C2F2000002683F204CF6CD4174
:10191000C3F64C516B46FFF771FABDF8000040F278
:101920006201C2F200010988421A40F26001C2F26B
:101930000001088810440880DCE7000021F0004224
:1019400001F00043A2F16052B2F5801F28BFD2F12E
:101950007F6C0BD95FEA001C43EAC20242EB507075
:1019600018BF704728BF20F001007047B2F5801FF4
:10197000BCBF184670474FEA410C1CF5001F02D24D
:10198000084600F015BD70B500F0FCFA00000089B3
:10199000FFF7F6BF4FF00040A0F580007047000051
:1019A00010B591EA030F48BF83F0004300F146836E
:1019B000841A71EB030C05D2121943EB0C03001BC4
:1019C00061EB0C014FEA1154A4EB135CDFF81CE14E
:1019D0001EEA430F18BF9EEA445F00F0748021EABC
:1019E000045123EA0E0343F48013DCF1200E32D3BA
:1019F00022FA0CFE10EB0E0023FA0CFE41EB0E0156
:101A0000CCF1200E03FA0EFE10EB0E00CCF1200EEE
:101A100051F10001B1F5801F32D201EB045112FAED
:101A20000EF2BDE8104058BF7047401C38BF5FEA57
:101A3000420218BF7047002814BF20F0010041F196
:101A400000014FEA410313F5001F38BF7047A1F1B1
:101A5000C04100F0E5BA012A43EB0302ACF1200CCF
:101A6000DCF11F0E32BF4FF0000E23FA0CF310EB27
:101A7000030041EB0451B4EB115FD0D0A1EB045152
:101A800001F58011490801EB04515FEA30000ED3E3
:101A900050F1000038BF12FA0EFE08D1BDE8104028
:101AA000C9E7401C38BF5FEA4202CAD1C3E7BDE8BC
:101AB00010404FEA410313F5001F38BF7047A1F1F2
:101AC000C04100F0ADBA9EEA445F08D011EA5E0F53
:101AD000BDE8104004BF01F0004100207047BDE8A0
:101AE000104070B500F04EFA64FBBE3E0000E0FF0F
:101AF0002DE9C04130B4DFF8A4C23CEA111418BF8C
:101B00003CEA131400F0ED801CEA111481EA03058D
:101B100044EAD57418BF1CEA131500F0C880A4EB82
:101B2000050404F17F7404F500344FF0004545EAE4
:101B3000C12145EAC32341EA505143EA52534FEAD7
:101B4000C0204FEAC222994208BF904200F09D8017
:101B50004FEA13650FF24416765D4FEA134506FB14
:101B600005F7C7F1807706FB07F74FEAD737A7FBE2
:101B700003687642A7FB06CEC8F5803838BFA8F1C7
:101B8000010807FB08E6A6FB028C4FF0000EE6FBFF
:101B900003CEDCF1000CCEF1004E38BFAEF1010EE9
:101BA000A6FB0C584FF00007E6FB0E87A1FB08C60A
:101BB000A0FB07CE16EB0E064FF0000545F1000521
:101BC000E1FB076515F1E04E7EBFA4F580345FEAC6
:101BD00046066D4116F1800745F100054FEA1727CB
:101BE00047EA05674FEA15254FEA0666A6F1DE4685
:101BF000B6F1805F20D9384605EBC47124F0010CA2
:101C000001EB0C11BCF1FE6F02D8F0BCBDE8008105
:101C100024425CBF01F5801E9EEAC47F02D4F0BC62
:101C2000BDE80081244200F13980A1F1C041F0BC3F
:101C3000BDE8004100F0F4B94FEAD02040EA41503D
:101C40004FEAD1214FEAD22242EA43524FEAD3234C
:101C5000A7FB028607FB036605FB02661EEA0E0F62
:101C600058BFA6EB0056B6EB00564FEA520E4EEAAE
:101C7000C37E18EB0E0E56EB530EBCD518EB0208C4
:101C80005E417F1C55F10005B5E74FF480154FF01C
:101C900000074FF000064FF00008ACE701F1C0412B
:101CA00001F000414FF00000F0BCBDE800810CEAFB
:101CB000131511EA0C1F00D00CE013EA0C1F00F002
:101CC00026804FF0000081EA030101F00041F0BCE2
:101CD000BDE80081F0BCBDE8004181EA030100F0ED
:101CE0009FB9F0BCBDE8004170B500F04BF900BFF2
:101CF000097EFC3E00F007B84FF0000081EA0301C6
:101D000001F00041704781EA030100F089B9F0BC9D
:101D1000BDE8004122494FF000007047FFFDFBF98C
:101D2000F7F5F4F2F0EEEDEBE9E8E6E4E3E1E0DE0E
:101D3000DDDBDAD8D7D5D4D3D1D0CFCDCCCBCAC880
:101D4000C7C6C5C4C2C1C0BFBEBDBCBBBAB9B8B7A7
:101D5000B6B5B4B3B2B1B0AFAEADACABAAA9A8A89A
:101D6000A7A6A5A4A3A3A2A1A09F9F9E9D9C9C9B68
:101D70009A99999897979695959493939291919013
:101D80008F8F8E8E8D8C8C8B8B8A898988888787A4
:101D90008685858484838382828181800000FF0719
:101DA0000000F87F4FEA41034FEA5353A3F58063E5
:101DB000D3F11E03C8BFD3F1210C0CDD4FF000425C
:101DC00042EAC12242EA505232FA03FC8CEAE17C38
:101DD000ACEBE1707047102BC4BF0020704703F5D7
:101DE000787CBCF1FF3F04D06FF0004282EA210012
:101DF000704770B500F0C6F8499224800020704703
:101E0000F2E710F0004248BF4042B0FA80F310FA07
:101E100003F10AD0C3F11D0303F5806302EB035203
:101E20004FEA415002EBD12170474FF0000070475C
:101E300070B5DFF848C11CEA111E1EBF1CEA13155D
:101E40009EEA0C0F95EA0C0F00F06F8081EA030404
:101E50004EEAD47EAE4421EA4C1123EA4C1341F4FD
:101E6000801143F48013AEF17F7EA1FB024CA0FBF6
:101E70000365361955EB0C05A1FB034C4CF100032F
:101E8000A0FB021C16EB0C06654153F1000309424E
:101E900018BF46F0010613F4007F0BD14FEA03315F
:101EA0004FEA053041EA155140EA165034036FF00D
:101EB00003020AE04FEAC3214FEAC52041EA555127
:101EC00040EA5650F4026FF0020202EB2E4201EBA0
:101ED000025585EACE710AD05FEA440C18BF24F09F
:101EE000004450F1000041F1000120EAD47040F2BA
:101EF000FE7C624500D270BDA84214BF4FF0804402
:101F00004FF04044002E08BF0024BEF1806FA8BFF0
:101F1000A1F1C041BDE8704080F2828001F1C04172
:101F200001F000414FF0000070470CEA13159EEAE3
:101F30000C0F18BF95EA0C0F06D081EA030E4FF084
:101F400000000EF0004170BD00F01CF88900013E59
:101F500000F007B800F009B84FEA430C5FEA5C5C98
:101F600008D081EA030100F05BB84FEA410C5FEA58
:101F70005C5CF6D102494FF0000070470000FF079B
:101F80000000F87F0EF1020E2EF0030E5EF8046BD7
:101F9000364205D4012A43EB030515F5001F12D87C
:101FA000012841EB010C1CF5001F0CD80ED14FEAA3
:101FB000D17C0CEB4C0C0CF1020C15F5001F08BF8A
:101FC0004CEBD37C04E04FF0080C01E04FEAD37CEB
:101FD0000CEB4C0526FA05F606F00706B6F1040CE4
:101FE00006D20EEB860CBDE870404CF0010C604749
:101FF000DFE80CF0090B02024FF00041A1F50021CF
:102000004FF0000070BD19461046012851EB010445
:1020100018BFD4F5001484BF002001F0004170BD4A
:102020000808A0F500114FEA3101704710B591EA98
:10203000030F48BF83F000433FF5BAAC841A71EB3D
:10204000030C07D28CF0004C121943EB0C03001B5D
:1020500061EB0C014FEA1154A4EB135CDFF8A4E12F
:102060001EEA430F18BF9EEA445F00F0B48021EAE5
:10207000045123EA6E035242C3EB6E0338BF5B1E6A
:10208000DCF1200E25D322FA0CFE10EB0E0043FAF1
:102090000CFE41EB0E01CCF1200E03FA0EFE10EB0C
:1020A0000E00CCF1200E51F1000129D401EB0451B6
:1020B00012FA0EF2BDE8104058BF7047401C1CBF1A
:1020C000B2F1004F704700280CBF491C20F00100FE
:1020D000704712EB020E43EB030218BF4FF0010EE4
:1020E0004EEA4202ACF1200CDCF11E0E56D943FA46
:1020F0000CFE10EB0E00CCF11E0E51F1FF31D5D5C8
:102100000EF1010E12FA0EFE404141EB010101EB0E
:10211000445C5FEA5C5C10D901EB045110EBDE70AB
:1021200038BFBEF1004FBDE8104018BF704700280F
:102130000CBF491C20F00100704734D24FEAD42C68
:1021400024F4006411F500111BD0B1FA81F20B3AAE
:10215000A41AA41ED2F12003914030FA03F31943CC
:10216000904001EBCC7101EB0451002CBDE8104014
:10217000A8BF704701F1C04101F000414FF00000DD
:102180007047B0FA80F310FA03F102D1BDE81040B5
:102190007047E41A173C4805C90AE2E701EB04510D
:1021A000BDE81040704749104FEA300001EB045180
:1021B000BDE8104002E04FF0000170474A0008BF40
:1021C0000042F8D0B2F5001F28BF704701F000416F
:1021D0004FF0000070479EEA445F07D011EA5E0F9F
:1021E000BDE8104004BF002100207047BDE810404A
:1021F00070B5FFF7C7FE00BF40DFF63E104683F024
:10220000004170470000E0FF43004FEAD30C4FEA63
:102210003C0C43401FBF40070CF1605113F0FE4FD0
:1022200070471CF0006F03D10CF000410020704794
:102230000CF0004343EA507040EACC0010B500F0C7
:1022400071F800BF000000924FEA0001FFF7E8BEFE
:102250004FF00041A1F500214FF000007047000051
:1022600090EA010F48BF81F0004100F1AE80421AB0
:102270003CBF801A89184FEAD052A2EBD1534FF0DD
:102280007F4C1CEA410F18BF9CEA026F00F03B80B4
:102290004FF0004C4CEA00204CEA012121FA03FCEB
:1022A00010EB0C0C1ED202F1FF325FEA1C2040EB57
:1022B000C25038BF70471CF07F0F4FEA400C18BF68
:1022C000BCF17F4F38BF7047C3F12003994008BF6E
:1022D00020F00100BCF17F4F38BF7047A0F1C04033
:1022E00000F066B84FEA3C00000A40EBC25028BF3D
:1022F0001CF0FF0F4FEA400CE6D018BFBCF17F4F37
:1023000038BF7047EAE79CEA026F05D010EA5C0F1D
:1023100008BF00F00040704710B500F003F800BFA0
:1023200064FBBE3E0EF1020E2EF0030E5EF8044B6F
:10233000244204D44FEA4102B2F17F4F11D84FEA50
:102340004003B3F17F4F0CD80ED14FEAD07C0CEB99
:102350004C0C0CF1020CB2F17F4F08BF4CEBD17C5E
:1023600004E04FF0080C01E04FEAD17C0CEB4C0389
:1023700024FA03F404F00704B4F1040C06D20EEBC3
:10238000840CBDE810404CF0010C6047DFE80CF015
:10239000070802024FF00040A0F5800010BD08467B
:1023A000420018BFD2F1807288BF00F0004010BD1B
:1023B000FF2141EAD050C0057047000090EA010FAC
:1023C00048BF81F000413FF552AF421A04D882F075
:1023D0000042A0EB020011444FEAD052A2EBD153CD
:1023E0004FF07F4C1CEA410F18BF9CEA026F4AD0A5
:1023F0004FF0004C4CEA00204CEA012121FA03FC8A
:10240000B0EB0C0C0FD412F0FE0F36D05FEA4C008C
:102410001DD5001240EBC25038BF70471CF03F0F73
:1024200018BF70470BE05FEA1C20A2F1010240EBED
:10243000C25038BF70471CF07F0F18BF7047C3F100
:102440002003994014BF401E20F0010070474FEA5E
:102450001223800808BF7047B0FA80FCA2EB0C0280
:10246000CCF1280C60FA0CF093EA122F04BF00EBB9
:10247000C25070474FEAC3707047130A5FEADC101E
:1024800008BF7047F6E79CEA026F04D010EA5C0FC1
:1024900008BF0020704710B5FFF744FF40DFF63E4D
:1024A00081F0004070470000B824000800000020C0
:0824B000903200005401000805
:04000005080000ED02
:00000001FF
